{"abi":[{"type":"constructor","inputs":[{"name":"_poolManager","type":"address","internalType":"address"},{"name":"_positionManager","type":"address","internalType":"address"},{"name":"_lpLocker","type":"address","internalType":"address"},{"name":"_weth","type":"address","internalType":"address"}],"stateMutability":"nonpayable"},{"type":"receive","stateMutability":"payable"},{"type":"function","name":"LP_FEE","inputs":[],"outputs":[{"name":"","type":"uint24","internalType":"uint24"}],"stateMutability":"view"},{"type":"function","name":"TICK_SPACING","inputs":[],"outputs":[{"name":"","type":"int24","internalType":"int24"}],"stateMutability":"view"},{"type":"function","name":"TOKEN_SUPPLY","inputs":[],"outputs":[{"name":"","type":"uint256","internalType":"uint256"}],"stateMutability":"view"},{"type":"function","name":"createToken","inputs":[{"name":"name","type":"string","internalType":"string"},{"name":"symbol","type":"string","internalType":"string"},{"name":"imageUrl","type":"string","internalType":"string"}],"outputs":[{"name":"token","type":"address","internalType":"address"},{"name":"positionId","type":"uint256","internalType":"uint256"}],"stateMutability":"payable"},{"type":"function","name":"lpLocker","inputs":[],"outputs":[{"name":"","type":"address","internalType":"contract IPumpClawLPLocker"}],"stateMutability":"view"},{"type":"function","name":"poolManager","inputs":[],"outputs":[{"name":"","type":"address","internalType":"contract IPoolManager"}],"stateMutability":"view"},{"type":"function","name":"positionManager","inputs":[],"outputs":[{"name":"","type":"address","internalType":"contract IPositionManager"}],"stateMutability":"view"},{"type":"function","name":"weth","inputs":[],"outputs":[{"name":"","type":"address","internalType":"address"}],"stateMutability":"view"},{"type":"event","name":"TokenCreated","inputs":[{"name":"token","type":"address","indexed":true,"internalType":"address"},{"name":"creator","type":"address","indexed":true,"internalType":"address"},{"name":"name","type":"string","indexed":false,"internalType":"string"},{"name":"symbol","type":"string","indexed":false,"internalType":"string"},{"name":"positionId","type":"uint256","indexed":false,"internalType":"uint256"},{"name":"poolKey","type":"tuple","indexed":false,"internalType":"struct PoolKey","components":[{"name":"currency0","type":"address","internalType":"Currency"},{"name":"currency1","type":"address","internalType":"Currency"},{"name":"fee","type":"uint24","internalType":"uint24"},{"name":"tickSpacing","type":"int24","internalType":"int24"},{"name":"hooks","type":"address","internalType":"contract IHooks"}]}],"anonymous":false},{"type":"error","name":"ReentrancyGuardReentrantCall","inputs":[]}],"bytecode":{"object":"0x610100346100f457601f612c4238819003918201601f19168301916001600160401b038311848410176100f8578084926080946040528339810103126100f4576100488161010c565b906100556020820161010c565b61006d60606100666040850161010c565b930161010c565b60017f9b779b17422d0df92223018b32b4d1fa46e071723d6817e2486d003becc55f00556001600160a01b0393841660805290831660a052911660c05260e052604051612b21908161012182396080518160c6015260a0518181816103f20152610d73015260c0518181816105ee0152610ec0015260e0518181816102c60152610e540152f35b5f80fd5b634e487b7160e01b5f52604160045260245ffd5b51906001600160a01b03821682036100f45756fe608080604052600436101561001c575b50361561001a575f80fd5b005b5f905f3560e01c90816303fc201314610e78575080633fc8cef314610e0a57806346ca626b14610dd15780635e3f272714610d97578063791b98bc14610d2957806394aed7d014610133578063b152f6cf146100ed5763dc4c90d30361000f57346100ea57807ffffffffffffffffffffffffffffffffffffffffffffffffffffffffffffffffc3601126100ea57602060405173ffffffffffffffffffffffffffffffffffffffff7f0000000000000000000000000000000000000000000000000000000000000000168152f35b80fd5b50346100ea57807ffffffffffffffffffffffffffffffffffffffffffffffffffffffffffffffffc3601126100ea5760206040516c01431e0fae6d7217caa00000008152f35b5060607ffffffffffffffffffffffffffffffffffffffffffffffffffffffffffffffffc360112610d255760043567ffffffffffffffff8111610d255761017e903690600401610ee4565b9160243567ffffffffffffffff8111610d255761019f903690600401610ee4565b9260443567ffffffffffffffff8111610d25576101c0903690600401610ee4565b60027f9b779b17422d0df92223018b32b4d1fa46e071723d6817e2486d003becc55f009692965414610cfd5760027f9b779b17422d0df92223018b32b4d1fa46e071723d6817e2486d003becc55f005534159586610c9f5760405191611a8e908184019084821067ffffffffffffffff831117610c5957849361028e93611093863960a083526102676102588d60a08601908b610f12565b8481036020860152888b610f12565b926c01431e0fae6d7217caa000000060408201523360608201526080818503910152610f12565b03905ff08015610c945773ffffffffffffffffffffffffffffffffffffffff169273ffffffffffffffffffffffffffffffffffffffff7f0000000000000000000000000000000000000000000000000000000000000000169182851093845f14610c8e5785935b8515610c8657945b6040519460a0860186811067ffffffffffffffff821117610c595773ffffffffffffffffffffffffffffffffffffffff91829160405216968787521697886020870152612710604087015260c860608701525f6080870152815f14610bf65750670de0b6b3a7640000340298348a04670de0b6b3a7640000141715610bc9576103956c01431e0fae6d7217caa00000005f9a0461101e565b8060601b908082046c010000000000000000000000001490151715610bc95773ffffffffffffffffffffffffffffffffffffffff633b9aca008b9204165b60206104a760c48973ffffffffffffffffffffffffffffffffffffffff7f0000000000000000000000000000000000000000000000000000000000000000169573ffffffffffffffffffffffffffffffffffffffff60405196879586947ff7020405000000000000000000000000000000000000000000000000000000008652600486019073ffffffffffffffffffffffffffffffffffffffff6080809282815116855282602082015116602086015262ffffff6040820151166040860152606081015160020b6060860152015116910152565b1660a4830152865af18015610b8557610b90575b506040517f095ea7b3000000000000000000000000000000000000000000000000000000008152600481018290526c01431e0fae6d7217caa000000060248201526020816044818e8d5af18015610b8557610b4d575b50604051907f020000000000000000000000000000000000000000000000000000000000000060208301527f0d00000000000000000000000000000000000000000000000000000000000000602183015260028252610571602283610f50565b6060976040519a6105828a8d610f50565b60028c527fffffffffffffffffffffffffffffffffffffffffffffffffffffffffffffffe08a018c8e5b8c838210610b3d5750505050845f14610b36576c01431e0fae6d7217caa0000000945b15610b225734945b73ffffffffffffffffffffffffffffffffffffffff7f000000000000000000000000000000000000000000000000000000000000000016956040519182602081011067ffffffffffffffff602085011117610af4578f83610725938e936106f993602061069f9801604052808452604051978896602088019073ffffffffffffffffffffffffffffffffffffffff6080809282815116855282602082015116602086015262ffffff6040820151166040860152606081015160020b6060860152015116910152565b7ffffffffffffffffffffffffffffffffffffffffffffffffffffffffffff2766060c0870152620d89a060e087015261010086015261012085015261014084015289610160840152610180808401526101a0830190610f91565b037fffffffffffffffffffffffffffffffffffffffffffffffffffffffffffffffe08101835282610f50565b61072e8d610fd4565b526107388c610fd4565b506040519160208301526040820152604081526107558982610f50565b61075e8b61100e565b526107688a61100e565b50604051997f75794a3c000000000000000000000000000000000000000000000000000000008b5260208b600481855afa9a8b15610ae9578c9b610ab5575b506107c4928c91604051948592604060208501528c840190610f91565b7fffffffffffffffffffffffffffffffffffffffffffffffffffffffffffffffe0838203016040840152815190818152602081016020808460051b840101940195915b838310610a6657505050506108439250037fffffffffffffffffffffffffffffffffffffffffffffffffffffffffffffffe08101845283610f50565b603c420191824211610a3957813b15610a35578b91610899916040518095819482937fdd46508f000000000000000000000000000000000000000000000000000000008452604060048501526044840190610f91565b906024830152039134905af18015610a2a57908a91610a15575b5050803b15610a11578880916064604051809481937f72dd76460000000000000000000000000000000000000000000000000000000083528c60048401528d60248401523360448401525af18015610a06576109ed575b50859361095e7fffd420ce8836092d7fd73a15edb68e1edd2031f573f724a8688b08bc6e62a8559460409b946109506109b6958e51976101008952610100890191610f12565b918683036020880152610f12565b95888b85015283019073ffffffffffffffffffffffffffffffffffffffff6080809282815116855282602082015116602086015262ffffff6040820151166040860152606081015160020b6060860152015116910152565b8033940390a360017f9b779b17422d0df92223018b32b4d1fa46e071723d6817e2486d003becc55f00558351925082526020820152f35b6109f8898092610f50565b610a02575f61090a565b8780fd5b6040513d8b823e3d90fd5b8880fd5b81610a1f91610f50565b610a1157885f6108b3565b6040513d8c823e3d90fd5b8b80fd5b60248c7f4e487b710000000000000000000000000000000000000000000000000000000081526011600452fd5b91936001919395506020610aa3827fffffffffffffffffffffffffffffffffffffffffffffffffffffffffffffffe0868495030187528951610f91565b97019301930190928794929593610807565b909a506020813d602011610ae1575b81610ad160209383610f50565b81010312610a355751995f6107a7565b3d9150610ac4565b6040513d8e823e3d90fd5b5060248f7f4e487b710000000000000000000000000000000000000000000000000000000081526041600452fd5b6c01431e0fae6d7217caa0000000946105d7565b34946105cf565b6020828194010152018d906105ac565b6020813d602011610b7d575b81610b6660209383610f50565b81010312610b7957518015158114610511575b8a80fd5b3d9150610b59565b6040513d8d823e3d90fd5b6020813d602011610bc1575b81610ba960209383610f50565b81010312610b7957518060020b8103156104bb578a80fd5b3d9150610b9c565b7f4e487b71000000000000000000000000000000000000000000000000000000005f52601160045260245ffd5b9850610c173473118427b3b4a05bc8a8a4de8459868000000000000461101e565b8060601b908082046c010000000000000000000000001490151715610bc95773ffffffffffffffffffffffffffffffffffffffff633b9aca008b9204166103d3565b7f4e487b71000000000000000000000000000000000000000000000000000000005f52604160045260245ffd5b5085946102fd565b836102f5565b6040513d5f823e3d90fd5b60646040517f08c379a000000000000000000000000000000000000000000000000000000000815260206004820152601060248201527f4d7573742070726f7669646520455448000000000000000000000000000000006044820152fd5b7f3ee5aeb5000000000000000000000000000000000000000000000000000000005f5260045ffd5b5f80fd5b34610d25575f7ffffffffffffffffffffffffffffffffffffffffffffffffffffffffffffffffc360112610d2557602060405173ffffffffffffffffffffffffffffffffffffffff7f0000000000000000000000000000000000000000000000000000000000000000168152f35b34610d25575f7ffffffffffffffffffffffffffffffffffffffffffffffffffffffffffffffffc360112610d255760206040516127108152f35b34610d25575f7ffffffffffffffffffffffffffffffffffffffffffffffffffffffffffffffffc360112610d2557602060405160c88152f35b34610d25575f7ffffffffffffffffffffffffffffffffffffffffffffffffffffffffffffffffc360112610d2557602060405173ffffffffffffffffffffffffffffffffffffffff7f0000000000000000000000000000000000000000000000000000000000000000168152f35b34610d25575f7ffffffffffffffffffffffffffffffffffffffffffffffffffffffffffffffffc360112610d255760209073ffffffffffffffffffffffffffffffffffffffff7f0000000000000000000000000000000000000000000000000000000000000000168152f35b9181601f84011215610d255782359167ffffffffffffffff8311610d255760208381860195010111610d2557565b601f82602094937fffffffffffffffffffffffffffffffffffffffffffffffffffffffffffffffe093818652868601375f8582860101520116010190565b90601f7fffffffffffffffffffffffffffffffffffffffffffffffffffffffffffffffe0910116810190811067ffffffffffffffff821117610c5957604052565b907fffffffffffffffffffffffffffffffffffffffffffffffffffffffffffffffe0601f602080948051918291828752018686015e5f8582860101520116010190565b805115610fe15760200190565b7f4e487b71000000000000000000000000000000000000000000000000000000005f52603260045260245ffd5b805160011015610fe15760400190565b801561108d5760018101808211610bc95760011c815b82821061104057505090565b90915081801561106057808204908101809111610bc95760011c90611034565b7f4e487b71000000000000000000000000000000000000000000000000000000005f52601260045260245ffd5b505f9056fe610180806040523461061257611a8e803803809161001d8285610616565b8339810160a0828203126106125781516001600160401b0381116106125781610047918401610639565b60208301519092906001600160401b0381116106125782610069918301610639565b6040820151606083015191939092906001600160a01b03831683036106125760808201516001600160401b038111610612576100a59201610639565b936040938451916100b68684610616565b60018352603160f81b6020840190815281519092906001600160401b03811161043957600354600181811c91168015610608575b602082101461041b57601f81116105a5575b50806020601f8211600114610541575f91610536575b508160011b915f199060031b1c1916176003555b8051906001600160401b0382116104395760045490600182811c9216801561052c575b602083101461041b5781601f8493116104be575b50602090601f8311600114610458575f9261044d575b50508160011b915f199060031b1c1916176004555b6101918161068e565b6101205261019e83610815565b6101405260208151910120918260e05251902080610100524660a05284519060208201927f8b73c3c69bb8fe3d512ecc4cf759cc79239f7b179b0ffacaa9a75d522b39400f84528683015260608201524660808201523060a082015260a0815261020960c082610616565b5190206080523060c0526101605282516001600160401b03811161043957600854600181811c9116801561042f575b602082101461041b57601f81116103b8575b506020601f821160011461035557819293945f9261034a575b50508160011b915f199060031b1c1916176008555b33156103375760025481810180911161032357600255335f525f602052815f2081815401905581519081525f7fddf252ad1be2c89b69c2b068fc378daa952ba7f163c4a11628f55a4df523b3ef60203393a351611140908161094e823960805181610d11015260a05181610dce015260c05181610ce2015260e05181610d6001526101005181610d86015261012051816104ca015261014051816104f3015261016051816108230152f35b634e487b7160e01b5f52601160045260245ffd5b63ec442f0560e01b5f525f60045260245ffd5b015190505f80610263565b601f1982169060085f52805f20915f5b8181106103a057509583600195969710610388575b505050811b01600855610278565b01515f1960f88460031b161c191690555f808061037a565b9192602060018192868b015181550194019201610365565b60085f527ff3f7a9fe364faab93b216da50a3214154f22a0a2b415b23a84c8169e8b636ee3601f830160051c81019160208410610411575b601f0160051c01905b818110610406575061024a565b5f81556001016103f9565b90915081906103f0565b634e487b7160e01b5f52602260045260245ffd5b90607f1690610238565b634e487b7160e01b5f52604160045260245ffd5b015190505f80610173565b60045f9081528281209350601f198516905b8181106104a6575090846001959493921061048e575b505050811b01600455610188565b01515f1960f88460031b161c191690555f8080610480565b9293602060018192878601518155019501930161046a565b60045f529091507f8a35acfbc15ff81a39ae7d344fd709f28e8600b4aa8c65c6b64bfe7fe36bd19b601f840160051c81019160208510610522575b90601f859493920160051c01905b818110610514575061015d565b5f8155849350600101610507565b90915081906104f9565b91607f1691610149565b90508301515f610112565b60035f9081528181209250601f198416905b81811061058d57509083600194939210610575575b5050811b01600355610126565b8501515f1960f88460031b161c191690555f80610568565b9192602060018192868a015181550194019201610553565b60035f527fc2575a0e9e593c00f959f8c92f12db2869c3395a3b0502d05e2516446f71f85b601f830160051c810191602084106105fe575b601f0160051c01905b8181106105f357506100fc565b5f81556001016105e6565b90915081906105dd565b90607f16906100ea565b5f80fd5b601f909101601f19168101906001600160401b0382119082101761043957604052565b81601f82011215610612578051906001600160401b038211610439576040519261066d601f8401601f191660200185610616565b8284526020838301011161061257815f9260208093018386015e8301015290565b908151602081105f14610708575090601f8151116106c85760208151910151602082106106b9571790565b5f198260200360031b1b161790565b604460209160405192839163305a27a960e01b83528160048401528051918291826024860152018484015e5f828201840152601f01601f19168101030190fd5b6001600160401b03811161043957600554600181811c9116801561080b575b602082101461041b57601f81116107d8575b50602092601f821160011461077757928192935f9261076c575b50508160011b915f199060031b1c19161760055560ff90565b015190505f80610753565b601f1982169360055f52805f20915f5b8681106107c057508360019596106107a8575b505050811b0160055560ff90565b01515f1960f88460031b161c191690555f808061079a565b91926020600181928685015181550194019201610787565b60055f52601f60205f20910160051c810190601f830160051c015b8181106108005750610739565b5f81556001016107f3565b90607f1690610727565b908151602081105f14610840575090601f8151116106c85760208151910151602082106106b9571790565b6001600160401b03811161043957600654600181811c91168015610943575b602082101461041b57601f8111610910575b50602092601f82116001146108af57928192935f926108a4575b50508160011b915f199060031b1c19161760065560ff90565b015190505f8061088b565b601f1982169360065f52805f20915f5b8681106108f857508360019596106108e0575b505050811b0160065560ff90565b01515f1960f88460031b161c191690555f80806108d2565b919260206001819286850151815501940192016108bf565b60065f52601f60205f20910160051c810190601f830160051c015b8181106109385750610871565b5f815560010161092b565b90607f169061085f56fe6080806040526004361015610012575f80fd5b5f3560e01c90816302d05d3f146107f95750806306fdde0314610754578063095ea7b31461072e57806318160ddd1461071157806323b872dd146106d9578063313ce567146106be5780633644e5151461069c57806342966c681461067f57806370a082311461063b57806379cc67901461060b5780637ecebe00146105c657806384b0196e146104b257806395d89b411461040d578063a9059cbb146103dc578063aba83150146102dc578063d505accf146101495763dd62ed3e146100d7575f80fd5b34610145576040600319360112610145576100f061088a565b73ffffffffffffffffffffffffffffffffffffffff61010d6108ad565b91165f52600160205273ffffffffffffffffffffffffffffffffffffffff60405f2091165f52602052602060405f2054604051908152f35b5f80fd5b346101455760e06003193601126101455761016261088a565b61016a6108ad565b604435906064359260843560ff81168103610145578442116102b05761026b61026273ffffffffffffffffffffffffffffffffffffffff9283851697885f52600760205260405f20908154916001830190556040519060208201927f6e71edae12b1b97f4d1f60370fef10105fa2faae0126114a169c64845d6126c984528b6040840152878a1660608401528a608084015260a083015260c082015260c0815261021560e0826109c1565b519020610220610ccb565b90604051917f190100000000000000000000000000000000000000000000000000000000000083526002830152602282015260c43591604260a4359220610fce565b90929192611068565b16848103610280575061027e9350610e9e565b005b84907f4b800e46000000000000000000000000000000000000000000000000000000005f5260045260245260445ffd5b847f62791302000000000000000000000000000000000000000000000000000000005f5260045260245ffd5b34610145575f600319360112610145576040515f6008546102fc816108d0565b808452906001811690811561039a575060011461033c575b61033883610324818503826109c1565b604051918291602083526020830190610847565b0390f35b60085f9081527ff3f7a9fe364faab93b216da50a3214154f22a0a2b415b23a84c8169e8b636ee3939250905b80821061038057509091508101602001610324610314565b919260018160209254838588010152019101909291610368565b7fffffffffffffffffffffffffffffffffffffffffffffffffffffffffffffff001660208086019190915291151560051b840190910191506103249050610314565b34610145576040600319360112610145576104026103f861088a565b6024359033610ba9565b602060405160018152f35b34610145575f600319360112610145576040515f60045461042d816108d0565b808452906001811690811561039a57506001146104545761033883610324818503826109c1565b60045f9081527f8a35acfbc15ff81a39ae7d344fd709f28e8600b4aa8c65c6b64bfe7fe36bd19b939250905b80821061049857509091508101602001610324610314565b919260018160209254838588010152019101909291610480565b34610145575f6003193601126101455761056a6104ee7f0000000000000000000000000000000000000000000000000000000000000000610f1b565b6105177f0000000000000000000000000000000000000000000000000000000000000000610f97565b60206105786040519261052a83856109c1565b5f84525f3681376040519586957f0f00000000000000000000000000000000000000000000000000000000000000875260e08588015260e0870190610847565b908582036040870152610847565b4660608501523060808501525f60a085015283810360c08501528180845192838152019301915f5b8281106105af57505050500390f35b8351855286955093810193928101926001016105a0565b346101455760206003193601126101455773ffffffffffffffffffffffffffffffffffffffff6105f461088a565b165f526007602052602060405f2054604051908152f35b346101455760406003193601126101455761027e61062761088a565b60243590610636823383610a2f565b610df4565b346101455760206003193601126101455773ffffffffffffffffffffffffffffffffffffffff61066961088a565b165f525f602052602060405f2054604051908152f35b346101455760206003193601126101455761027e60043533610df4565b34610145575f6003193601126101455760206106b6610ccb565b604051908152f35b34610145575f60031936011261014557602060405160128152f35b34610145576060600319360112610145576104026106f561088a565b6106fd6108ad565b6044359161070c833383610a2f565b610ba9565b34610145575f600319360112610145576020600254604051908152f35b346101455760406003193601126101455761040261074a61088a565b6024359033610e9e565b34610145575f600319360112610145576040515f600354610774816108d0565b808452906001811690811561039a575060011461079b5761033883610324818503826109c1565b60035f9081527fc2575a0e9e593c00f959f8c92f12db2869c3395a3b0502d05e2516446f71f85b939250905b8082106107df57509091508101602001610324610314565b9192600181602092548385880101520191019092916107c7565b34610145575f6003193601126101455760209073ffffffffffffffffffffffffffffffffffffffff7f0000000000000000000000000000000000000000000000000000000000000000168152f35b907fffffffffffffffffffffffffffffffffffffffffffffffffffffffffffffffe0601f602080948051918291828752018686015e5f8582860101520116010190565b6004359073ffffffffffffffffffffffffffffffffffffffff8216820361014557565b6024359073ffffffffffffffffffffffffffffffffffffffff8216820361014557565b90600182811c92168015610917575b60208310146108ea57565b7f4e487b71000000000000000000000000000000000000000000000000000000005f52602260045260245ffd5b91607f16916108df565b5f9291815491610930836108d0565b8083529260018116908115610985575060011461094c57505050565b5f9081526020812093945091925b83831061096b575060209250010190565b60018160209294939454838587010152019101919061095a565b905060209495507fffffffffffffffffffffffffffffffffffffffffffffffffffffffffffffff0091509291921683830152151560051b010190565b90601f7fffffffffffffffffffffffffffffffffffffffffffffffffffffffffffffffe0910116810190811067ffffffffffffffff821117610a0257604052565b7f4e487b71000000000000000000000000000000000000000000000000000000005f52604160045260245ffd5b73ffffffffffffffffffffffffffffffffffffffff909291921691825f52600160205260405f2073ffffffffffffffffffffffffffffffffffffffff82165f5260205260405f2054927fffffffffffffffffffffffffffffffffffffffffffffffffffffffffffffffff8410610aa6575b50505050565b828410610b5f578015610b335773ffffffffffffffffffffffffffffffffffffffff821615610b07575f52600160205273ffffffffffffffffffffffffffffffffffffffff60405f2091165f5260205260405f20910390555f808080610aa0565b7f94280d62000000000000000000000000000000000000000000000000000000005f525f60045260245ffd5b7fe602df05000000000000000000000000000000000000000000000000000000005f525f60045260245ffd5b5073ffffffffffffffffffffffffffffffffffffffff83917ffb8f41b2000000000000000000000000000000000000000000000000000000005f521660045260245260445260645ffd5b73ffffffffffffffffffffffffffffffffffffffff16908115610c9f5773ffffffffffffffffffffffffffffffffffffffff16918215610c7357815f525f60205260405f2054818110610c4157817fddf252ad1be2c89b69c2b068fc378daa952ba7f163c4a11628f55a4df523b3ef92602092855f525f84520360405f2055845f525f825260405f20818154019055604051908152a3565b827fe450d38c000000000000000000000000000000000000000000000000000000005f5260045260245260445260645ffd5b7fec442f05000000000000000000000000000000000000000000000000000000005f525f60045260245ffd5b7f96c6fd1e000000000000000000000000000000000000000000000000000000005f525f60045260245ffd5b73ffffffffffffffffffffffffffffffffffffffff7f000000000000000000000000000000000000000000000000000000000000000016301480610dcb575b15610d33577f000000000000000000000000000000000000000000000000000000000000000090565b60405160208101907f8b73c3c69bb8fe3d512ecc4cf759cc79239f7b179b0ffacaa9a75d522b39400f82527f000000000000000000000000000000000000000000000000000000000000000060408201527f000000000000000000000000000000000000000000000000000000000000000060608201524660808201523060a082015260a08152610dc560c0826109c1565b51902090565b507f00000000000000000000000000000000000000000000000000000000000000004614610d0a565b90919073ffffffffffffffffffffffffffffffffffffffff168015610c9f57805f525f60205260405f2054838110610e6b576020845f94957fddf252ad1be2c89b69c2b068fc378daa952ba7f163c4a11628f55a4df523b3ef938587528684520360408620558060025403600255604051908152a3565b91507fe450d38c000000000000000000000000000000000000000000000000000000005f5260045260245260445260645ffd5b73ffffffffffffffffffffffffffffffffffffffff16908115610b335773ffffffffffffffffffffffffffffffffffffffff16918215610b075760207f8c5be1e5ebec7d5bd14f71427d1e84f3dd0314c0f7b2291e5b200ac8c7c3b92591835f526001825260405f20855f5282528060405f2055604051908152a3565b60ff8114610f7a5760ff811690601f8211610f525760405191610f3f6040846109c1565b6020808452838101919036833783525290565b7fb3512b0c000000000000000000000000000000000000000000000000000000005f5260045ffd5b50604051610f9481610f8d816005610921565b03826109c1565b90565b60ff8114610fbb5760ff811690601f8211610f525760405191610f3f6040846109c1565b50604051610f9481610f8d816006610921565b91907f7fffffffffffffffffffffffffffffff5d576e7357a4501ddfe92f46681b20a0841161105d579160209360809260ff5f9560405194855216868401526040830152606082015282805260015afa15611052575f5173ffffffffffffffffffffffffffffffffffffffff81161561104857905f905f90565b505f906001905f90565b6040513d5f823e3d90fd5b5050505f9160039190565b6004811015611113578061107a575050565b600181036110aa577ff645eedf000000000000000000000000000000000000000000000000000000005f5260045ffd5b600281036110de57507ffce698f7000000000000000000000000000000000000000000000000000000005f5260045260245ffd5b6003146110e85750565b7fd78bce0c000000000000000000000000000000000000000000000000000000005f5260045260245ffd5b7f4e487b71000000000000000000000000000000000000000000000000000000005f52602160045260245ffd","linkReferences":{}},"methodIdentifiers":{"LP_FEE()":"5e3f2727","TICK_SPACING()":"46ca626b","TOKEN_SUPPLY()":"b152f6cf","createToken(string,string,string)":"94aed7d0","lpLocker()":"03fc2013","poolManager()":"dc4c90d3","positionManager()":"791b98bc","weth()":"3fc8cef3"},"id":58}