{"abi":[{"type":"constructor","inputs":[{"name":"_positionManager","type":"address","internalType":"address"},{"name":"_admin","type":"address","internalType":"address"}],"stateMutability":"nonpayable"},{"type":"receive","stateMutability":"payable"},{"type":"function","name":"BPS","inputs":[],"outputs":[{"name":"","type":"uint256","internalType":"uint256"}],"stateMutability":"view"},{"type":"function","name":"CREATOR_FEE_BPS","inputs":[],"outputs":[{"name":"","type":"uint256","internalType":"uint256"}],"stateMutability":"view"},{"type":"function","name":"admin","inputs":[],"outputs":[{"name":"","type":"address","internalType":"address"}],"stateMutability":"view"},{"type":"function","name":"claimFees","inputs":[{"name":"token","type":"address","internalType":"address"}],"outputs":[],"stateMutability":"nonpayable"},{"type":"function","name":"getPosition","inputs":[{"name":"token","type":"address","internalType":"address"}],"outputs":[{"name":"positionId","type":"uint256","internalType":"uint256"},{"name":"creator","type":"address","internalType":"address"}],"stateMutability":"view"},{"type":"function","name":"lockPosition","inputs":[{"name":"token","type":"address","internalType":"address"},{"name":"positionId","type":"uint256","internalType":"uint256"},{"name":"creator","type":"address","internalType":"address"}],"outputs":[],"stateMutability":"nonpayable"},{"type":"function","name":"onERC721Received","inputs":[{"name":"","type":"address","internalType":"address"},{"name":"","type":"address","internalType":"address"},{"name":"","type":"uint256","internalType":"uint256"},{"name":"","type":"bytes","internalType":"bytes"}],"outputs":[{"name":"","type":"bytes4","internalType":"bytes4"}],"stateMutability":"pure"},{"type":"function","name":"positionManager","inputs":[],"outputs":[{"name":"","type":"address","internalType":"contract IPositionManager"}],"stateMutability":"view"},{"type":"function","name":"positions","inputs":[{"name":"","type":"address","internalType":"address"}],"outputs":[{"name":"positionId","type":"uint256","internalType":"uint256"},{"name":"creator","type":"address","internalType":"address"},{"name":"exists","type":"bool","internalType":"bool"}],"stateMutability":"view"},{"type":"event","name":"FeesClaimed","inputs":[{"name":"token","type":"address","indexed":true,"internalType":"address"},{"name":"amount0","type":"uint256","indexed":false,"internalType":"uint256"},{"name":"amount1","type":"uint256","indexed":false,"internalType":"uint256"},{"name":"creatorShare0","type":"uint256","indexed":false,"internalType":"uint256"},{"name":"creatorShare1","type":"uint256","indexed":false,"internalType":"uint256"}],"anonymous":false},{"type":"event","name":"PositionLocked","inputs":[{"name":"token","type":"address","indexed":true,"internalType":"address"},{"name":"positionId","type":"uint256","indexed":true,"internalType":"uint256"},{"name":"creator","type":"address","indexed":true,"internalType":"address"}],"anonymous":false},{"type":"error","name":"ReentrancyGuardReentrantCall","inputs":[]},{"type":"error","name":"SafeERC20FailedOperation","inputs":[{"name":"token","type":"address","internalType":"address"}]}],"bytecode":{"object":"0x60c0346100b557601f6112a638819003918201601f19168301916001600160401b038311848410176100b95780849260409485528339810103126100b557610052602061004b836100cd565b92016100cd565b60017f9b779b17422d0df92223018b32b4d1fa46e071723d6817e2486d003becc55f00556001600160a01b0390911660805260a0526040516111c490816100e2823960805181818161017e0152610620015260a05181818160d10152610a350152f35b5f80fd5b634e487b7160e01b5f52604160045260245ffd5b51906001600160a01b03821682036100b55756fe608080604052600436101561001c575b50361561001a575f80fd5b005b5f905f3560e01c908163150b7a0214610e1f5750806315a0ea6a1461051d57806316c1973914610478578063249d39e91461043d57806355f57510146103ab57806372dd7646146101a2578063791b98bc14610133578063cc3cbd2a146100f85763f851a4400361000f57346100f557807ffffffffffffffffffffffffffffffffffffffffffffffffffffffffffffffffc3601126100f557602060405173ffffffffffffffffffffffffffffffffffffffff7f0000000000000000000000000000000000000000000000000000000000000000168152f35b80fd5b50346100f557807ffffffffffffffffffffffffffffffffffffffffffffffffffffffffffffffffc3601126100f5576020604051611f408152f35b50346100f557807ffffffffffffffffffffffffffffffffffffffffffffffffffffffffffffffffc3601126100f557602060405173ffffffffffffffffffffffffffffffffffffffff7f0000000000000000000000000000000000000000000000000000000000000000168152f35b50346100f55760607ffffffffffffffffffffffffffffffffffffffffffffffffffffffffffffffffc3601126100f5576101da610ec4565b6024356044359173ffffffffffffffffffffffffffffffffffffffff83168093036103a75773ffffffffffffffffffffffffffffffffffffffff168084528360205260ff600160408620015460a01c166103495782156102eb5760405161024081610f0a565b828152602081019084825273ffffffffffffffffffffffffffffffffffffffff60016040830192818452858952886020526040892090518155019251167fffffffffffffffffffffff00000000000000000000000000000000000000000074ff000000000000000000000000000000000000000084549351151560a01b169216171790557fc0b4c0f14316ef19ccc841eb902ba9029ba6a2e4a5141fb336f5ded6b15f03688480a480f35b60646040517f08c379a000000000000000000000000000000000000000000000000000000000815260206004820152600f60248201527f496e76616c69642063726561746f7200000000000000000000000000000000006044820152fd5b60646040517f08c379a000000000000000000000000000000000000000000000000000000000815260206004820152600e60248201527f416c7265616479206c6f636b65640000000000000000000000000000000000006044820152fd5b8380fd5b50346100f55760207ffffffffffffffffffffffffffffffffffffffffffffffffffffffffffffffffc3601126100f557604060609173ffffffffffffffffffffffffffffffffffffffff6103fd610ec4565b168152806020522060ff6001825492015460405192835273ffffffffffffffffffffffffffffffffffffffff8116602084015260a01c1615156040820152f35b50346100f557807ffffffffffffffffffffffffffffffffffffffffffffffffffffffffffffffffc3601126100f55760206040516127108152f35b50346100f55760207ffffffffffffffffffffffffffffffffffffffffffffffffffffffffffffffffc3601126100f5576040809173ffffffffffffffffffffffffffffffffffffffff6104c9610ec4565b168152806020522081516104dc81610f0a565b60018254928383520154908360ff73ffffffffffffffffffffffffffffffffffffffff84169384602085015260a01c16151591015282519182526020820152f35b5034610b525760207ffffffffffffffffffffffffffffffffffffffffffffffffffffffffffffffffc360112610b5257610555610ec4565b60027f9b779b17422d0df92223018b32b4d1fa46e071723d6817e2486d003becc55f005414610df75773ffffffffffffffffffffffffffffffffffffffff9060027f9b779b17422d0df92223018b32b4d1fa46e071723d6817e2486d003becc55f005516805f525f60205260405f206001604051916105d383610f0a565b80548352015460ff602083019173ffffffffffffffffffffffffffffffffffffffff8116835260a01c161580156040840152610d995773ffffffffffffffffffffffffffffffffffffffff7f00000000000000000000000000000000000000000000000000000000000000001691805190604051917f7ba03aad000000000000000000000000000000000000000000000000000000008352600483015260c082602481875afa918215610c12575f92610ca7575b509290604051907f010000000000000000000000000000000000000000000000000000000000000060208301527f11000000000000000000000000000000000000000000000000000000000000006021830152600282526106e9602283610f26565b606092604051956106fa8588610f26565b600287527fffffffffffffffffffffffffffffffffffffffffffffffffffffffffffffffe085015f5b818110610c97575050906108369151966020976107a4604051916107478b84610f26565b5f83526107786040519384928d8401525f60408401525f8b8401525f608084015260a08084015260c0830190610f88565b037fffffffffffffffffffffffffffffffffffffffffffffffffffffffffffffffe08101835282610f26565b6107ad82610fcb565b526107b781610fcb565b5073ffffffffffffffffffffffffffffffffffffffff845116948885019573ffffffffffffffffffffffffffffffffffffffff875116604051918b8301526040820152308882015287815261080d608082610f26565b61081683611005565b5261082082611005565b5060405193849160408b84015288830190610f88565b917fffffffffffffffffffffffffffffffffffffffffffffffffffffffffffffffe082840301604083015280518084528a8401938b808360051b8301019301945f915b8d848410610c4a5750505050506108b79250037fffffffffffffffffffffffffffffffffffffffffffffffffffffffffffffffe08101845283610f26565b603c420191824211610c1d57813b15610b52575f9161090e91836040518096819582947fdd46508f000000000000000000000000000000000000000000000000000000008452604060048501526044840190610f88565b90602483015203925af18015610c1257610be9575b5073ffffffffffffffffffffffffffffffffffffffff809151169151169281155f14610b685747945b84610ae35747915b8615801581610ada575b61098b575b8960017f9b779b17422d0df92223018b32b4d1fa46e071723d6817e2486d003becc55f005580f35b611f40880290888204611f40141715610aad57612710900493611f408402848104611f401485151715610a80577fbbd1d92c7ce0a939e197766ef1f870dda058c847032d4e0d4eb8ab530e400a9a98969492608098969492612710610a60930497610a5b6109f9888c611015565b610a338b73ffffffffffffffffffffffffffffffffffffffff610a1c828c611015565b97610a2b8d838351168a611022565b511685611022565b7f00000000000000000000000000000000000000000000000000000000000000008094611022565b611022565b6040519586528501526040840152820152a25f8080808080808080610963565b60248b7f4e487b710000000000000000000000000000000000000000000000000000000081526011600452fd5b60248a7f4e487b710000000000000000000000000000000000000000000000000000000081526011600452fd5b5083151561095e565b6040517f70a082310000000000000000000000000000000000000000000000000000000081523060048201528181602481895afa908115610b5d578991610b2c575b5091610954565b90508181813d8311610b56575b610b438183610f26565b81010312610b5257515f610b25565b5f80fd5b503d610b39565b6040513d8b823e3d90fd5b6040517f70a082310000000000000000000000000000000000000000000000000000000081523060048201528581602481865afa908115610bde578891610bb1575b509461094c565b90508581813d8311610bd7575b610bc88183610f26565b81010312610b5257515f610baa565b503d610bbe565b6040513d8a823e3d90fd5b610bf69197505f90610f26565b5f9573ffffffffffffffffffffffffffffffffffffffff610923565b6040513d5f823e3d90fd5b7f4e487b71000000000000000000000000000000000000000000000000000000005f52601160045260245ffd5b600192949650610c85867fffffffffffffffffffffffffffffffffffffffffffffffffffffffffffffffe08484959799030187528951610f88565b97019301930190928794929593610879565b6020818a01810188905201610723565b8091925060c03d60c011610d92575b610cc08183610f26565b81010360c08112610b525760a013610b52576040519060a0820182811067ffffffffffffffff821117610d6557604052610cf981610f67565b8252610d0760208201610f67565b6020830152604081015162ffffff81168103610b525760408301526060810151908160020b8203610b52576080916060840152015173ffffffffffffffffffffffffffffffffffffffff81168103610b52576080820152905f610687565b7f4e487b71000000000000000000000000000000000000000000000000000000005f52604160045260245ffd5b503d610cb6565b60646040517f08c379a000000000000000000000000000000000000000000000000000000000815260206004820152601260248201527f506f736974696f6e206e6f7420666f756e6400000000000000000000000000006044820152fd5b7f3ee5aeb5000000000000000000000000000000000000000000000000000000005f5260045ffd5b34610b525760807ffffffffffffffffffffffffffffffffffffffffffffffffffffffffffffffffc360112610b5257610e56610ec4565b50610e5f610ee7565b5060643567ffffffffffffffff8111610b525736602382011215610b5257806004013567ffffffffffffffff8111610b525736910160240111610b5257807f150b7a020000000000000000000000000000000000000000000000000000000060209252f35b6004359073ffffffffffffffffffffffffffffffffffffffff82168203610b5257565b6024359073ffffffffffffffffffffffffffffffffffffffff82168203610b5257565b6060810190811067ffffffffffffffff821117610d6557604052565b90601f7fffffffffffffffffffffffffffffffffffffffffffffffffffffffffffffffe0910116810190811067ffffffffffffffff821117610d6557604052565b519073ffffffffffffffffffffffffffffffffffffffff82168203610b5257565b907fffffffffffffffffffffffffffffffffffffffffffffffffffffffffffffffe0601f602080948051918291828752018686015e5f8582860101520116010190565b805115610fd85760200190565b7f4e487b71000000000000000000000000000000000000000000000000000000005f52603260045260245ffd5b805160011015610fd85760400190565b91908203918211610c1d57565b82156111bf5773ffffffffffffffffffffffffffffffffffffffff168061110c57505f80809381935af13d15611107573d67ffffffffffffffff8111610d655760405190611098601f82017fffffffffffffffffffffffffffffffffffffffffffffffffffffffffffffffe01660200183610f26565b81525f60203d92013e5b156110a957565b60646040517f08c379a000000000000000000000000000000000000000000000000000000000815260206004820152601360248201527f455448207472616e73666572206661696c6564000000000000000000000000006044820152fd5b6110a2565b9173ffffffffffffffffffffffffffffffffffffffff604051927fa9059cbb000000000000000000000000000000000000000000000000000000005f521660045260245260205f60448180865af19060015f511482161561119e575b604052156111735750565b7f5274afe7000000000000000000000000000000000000000000000000000000005f5260045260245ffd5b9060018115166111b657823b15153d15161690611168565b503d5f823e3d90fd5b50505056","linkReferences":{}},"methodIdentifiers":{"BPS()":"249d39e9","CREATOR_FEE_BPS()":"cc3cbd2a","admin()":"f851a440","claimFees(address)":"15a0ea6a","getPosition(address)":"16c19739","lockPosition(address,uint256,address)":"72dd7646","onERC721Received(address,address,uint256,bytes)":"150b7a02","positionManager()":"791b98bc","positions(address)":"55f57510"},"id":37}